:100000000C94E2010C9429020C9429020C9429020C
:100010000C9429020C9429020C9429020C942902B4
:100020000C9429020C9429020C94572C0C94292D21
:100030000C947D270C9429020C9429020C9429021B
:100040000C9429020C9429020C9429020C94290284
:100050000C9429020C94F2270C9429020C94290286
:100060000C9429020C9429020C9429020C94290264
:100070000C9429020C9429020C9429020C94290254
:100080000C9429020C9429020C9429020C94290244
:100090000C9429020C9429020C9429020C94290234
:1000A0000C9429020C9429020C942902B704B70479
:1000B000E904E90436055D065D065D065405ED05B7
:1000C000FE05FE05F906F9060B070B0702070B07ED
:1000D0000B070B07F906F90607070B070B070707BE
:1000E000FB20E72006210B21102115211A211F21B9
:1000F000242129212E21332138213D21422147214C
:100100004C21512156215B21602165216A216F21FB
:10011000742179217E21832188218D2192219721AB
:100120009C21A121A621AB21B021B521BA21BF215B
:10013000C421C921962DBD2DB52EBD2DB52E092E5C
:100140002C2EB52E832E922E29002B0001512A0031
:1001500053005400550056005F00600061005700D6
:100160005C005D005E00000059005A005B00580012
:100170006200000063000000C35C01000100010098
:10018000C55CC45CC75CC65CCB5CCA5C010001009A
:10019000C95CC85C01000000CD5CCC5C01000100C2
:1001A00001000000005C00000001010101010101EB
:1001B000010102020202020202020203030303031C
:1001C00003030304040404040404050505050506EB
:1001D00006060606070707070708080808090909A9
:1001E000090A0A0A0B0B0B0C0C0C0D0D0D0E0E0E52
:1001F0000F0F0F10101111111212131314141515E3
:1002000016161717181819191A1A1B1B1C1D1D1E54
:100210001E1F2020212222232424252626272829A8
:10022000292A2B2C2D2D2E2F3031323233343536D6
:100230003738393A3B3C3D3E3F40414243444546D6
:100240004748494A4C4D4E4F5051535455565859B2
:100250005A5B5D5E5F616264656668696B6C6D6F59
:100260007072737577787A7B7D7E808283858788CC
:100270008A8C8E8F91939596989A9C9EA0A2A3A506
:10028000A7A9ABADAFB1B3B5B7BABCBEC0C2C4C607
:10029000C9CBCDCFD1D4D6D8DBDDDFE2E4E7E9EBC3
:1002A000EEF0F3F5F8FAFDFF08034E0055004D009F
:1002B00000001203430061006B00650077006100DD
:1002C0006C006B0000000403090409023B000201FA
:1002D00000A0FA0904000001030101000921110135
:1002E00000012240000705810308000A09040100FB
:1002F0000103000000092111010001226D00070522
:10030000820320000A120100020000000857434D3A
:100310004E01000102000105010980A101850319B8
:10032000012AB700150126B700950175108100C09C
:10033000050C0901A101850419012AA00215012655
:10034000A002950175108100C005010906A1018573
:1003500005050719E029E7150025019508750181B4
:10036000020507190029EF1500250195F075018197
:100370000205081901290595057501910295017578
:10038000039101C005010906A101050719E029E74C
:1003900015002501950875018102950175088101F7
:1003A0000507190029FF150026FF0095067508812D
:1003B000000508190129059505750191029501753A
:1003C000039101C011241FBECFEFDAE0DEBFCDBF25
:1003D00004B603FE27C08091E3039091E403A0914B
:1003E000E503B091E6038730904BA740B04BD1F4C2
:1003F0001092E3031092E4031092E5031092E603D7
:1004000014BE84B7877F84BF0FB6F894A8958091F7
:100410006000886180936000109260000FBEE0E091
:10042000F8E3099512E0A0E0B1E0E0E8F0E602C0F0
:1004300005900D92AE31B107D9F723E0AEE1B2E0FD
:1004400001C01D92A33EB207E1F70E9412120C9464
:100450003E300C94000081E0089581E008950C94F2
:100460002D0208950C9431021F93CF93DF9300D097
:1004700000D01F92CDB7DEB749835A836B8330918A
:10048000200289819A81311114C0662359F02223F8
:1004900049F00E949B08182F682F89819A810E9439
:1004A000460803C00E947008182F69817A81812F45
:1004B00004C00E949B0869817A810F900F900F9071
:1004C0000F900F90DF91CF911F910C949B0FFC0127
:1004D000262F408151816281738184810C94340282
:1004E00081E00895CF93DF93EC0160E00E94670202
:1004F000BE01DF91CF910C9432020E94A5100E94A0
:10050000F7020E94DE210C94DF100C94DB1008959A
:100510000E94E7060E9487022FEF84E39CE02150AF
:1005200080409040E1F700C000000C9418280F9321
:100530001F93CF93DF938C0161E00E946702EC016F
:10054000B8010E942F02882309F444C0B801CE01EB
:100550000E9457248823F1F1B801CE010E94A924FA
:100560008823C1F1B801CE010E94DB25882391F1D7
:10057000B801CE010E941D23882361F1F801828118
:10058000882309F1CB358DE5D807C1F050F4C115AA
:10059000FCE5DF0781F0CF3DDC45A9F40E94AC0DFE
:1005A00019C0CC35EDE5DE0761F0CD35DD4559F4F8
:1005B0000E943D0C08C00E9488020CC00E94460C9C
:1005C00002C00E94490CC801DF91CF911F910F9189
:1005D0000C942B0280E0DF91CF911F910F91089531
:1005E00008950C94F00281E008950C94F3020895AC
:1005F000CF93C82F0E94F1028C2F0E94F502CF9159
:100600000895CF93DF93CDB7DEB72B970FB6F8944D
:10061000DEBF0FBECDBF4F83588769877A878B8730
:1006200061110E946C0C9E012F5F3F4F86E0F90123
:1006300011928A95E9F785E0FE013796D90101907C
:100640000D928A95E1F789819A814C815D81452BD4
:1006500031F09F3F31F491E08F3F19F403C091E0F6
:1006600001C090E090FF09C049815A816B817C8173
:100670008D819E810E946C0B05C0C9010E94700291
:100680008111F2CF2B960FB6F894DEBF0FBECDBF0F
:10069000DF91CF910895FC01808191810E94DD0856
:1006A0000895CF93882309F49CC0C82F8238C1F4E1
:1006B0000E94112681FD95C069E380918B01909184
:1006C0008C010E94F9260E94910C2FEF81EE94E09C
:1006D000215080409040E1F700C0000069E319C05C
:1006E000833801F50E94112680FD7BC063E580916F
:1006F0008B0190918C010E94F9260E94910C2FEFA2
:1007000081EE94E0215080409040E1F700C000006D
:1007100063E580918B0190918C010E940427CF9119
:100720000C94910C8438C1F40E94112682FD59C0AA
:1007300067E480918B0190918C010E94F9260E94C0
:10074000910C2FEF81EE94E0215080409040E1F732
:1007500000C0000067E4DDCF8CEF8C0F813AD0F44D
:100760006C2F80918B0190918C010E9479268823B7
:1007700049F06C2F80918B0190918C010E9404278D
:100780000E94910C6C2F80918B0190918C010E94A2
:10079000F926C5CF80E28C0F883048F4C77081E01D
:1007A00001C0880FCA95EAF70E944F0CB8CFEBE55D
:1007B000EC0FE33040F4F0E0E153FE4F808190E035
:1007C000CF910C943726C85AC73158F4EC2FF0E07B
:1007D000EE0FFF1FEF55FE4F80819181CF910C945A
:1007E0004D26CF910895882309F45BC0682F823885
:1007F00079F40E94112681FF54C069E380918B0136
:1008000090918C010E94F9260E94910C69E310C01E
:100810008338B1F40E94112680FF43C063E58091C4
:100820008B0190918C010E94F9260E94910C63E546
:1008300080918B0190918C010E9404270C94910C63
:10084000843879F40E94112682FF2BC067E48091DE
:100850008B0190918C010E94F9260E94910C67E413
:10086000E7CF8CEF860F813A18F380E2860F88304D
:1008700048F4677081E001C0880F6A95EAF70E942A
:10088000550CDCCF8BE5860F833020F480E090E0C0
:100890000C943726685A673120F480E090E00C947D
:1008A0004D2608951F93CF93DF93182FEB010E94DD
:1008B0005103209741F08FE99FE00197F1F700C0C5
:1008C00000002197F6CF812FDF91CF911F910C94DB
:1008D000F303893319F060E070E002C060E570E076
:1008E0000C945204882321F00E944F0C0C94910C1C
:1008F0000895882321F00E94550C0C94910C0895C2
:10090000CF92DF92EF92FF920F931F93CF93DF93DB
:100910007C01D62FC72FFC011281058102950F7033
:100920000E94240C882399F0112389F08C2F807F5A
:10093000803421F080E28D0F883048F082E00E9400
:10094000E10C0E94240C91E0D82ED92601C0D12CB4
:10095000CC2EC2948FE0C8228C2D90E08C30910573
:1009600008F0ABC1FC01EA5AFF4F0C94302F8C2FDA
:10097000807FCF70882311F0C295C07F112399F03A
:10098000CC2309F486C180E28D0F883010F0D1119C
:1009900004C08C2F0E944F0C03C08C2F0E945F0C50
:1009A0000E94910C76C18D2F0E94F303CC2309F491
:1009B00084C180E28D0F883010F0D11104C08C2FDB
:1009C0000E94550C03C08C2F0E94650C0E94910C54
:1009D00074C18C2F807FCF70803211F0C295C07FA0
:1009E000DD2319F0D130C9F022C0112371F00023AA
:1009F00041F0013031F40E94720C8C2B0E947A0C71
:100A00005CC10E94720C8C2B1DC0002319F00130B8
:100A100009F453C10E94870C25C0112321F0063030
:100A200008F04BC10EC0053008F047C11BC01123B0
:100A300061F0002331F0F701858180FF2AC18F70BA
:100A400085838C2F0E94720438C1002359F0D9335A
:100A500009F030C1FFEF07EE13E0F1500040104005
:100A6000E1F726C18C2F0E94790427C18C2F86952F
:100A70008695837019F0813061F01FC1112321F038
:100A80008D2F9C2F937002C080E090E00E9437264B
:100A90001CC1112321F08D2F9C2F937002C080E088
:100AA00090E00E944D2611C18C2F837009F047C041
:100AB000111107C12D2F229526952770220F220F85
:100AC0006D2F6F70862F90E0A0E0B0E0022E04C082
:100AD000880F991FAA1FBB1F0A94D2F7D4FF10C01A
:100AE0004FE050E060E070E004C0440F551F661F07
:100AF000771F2A95D2F7409550956095709503C061
:100B000040E050E0BA01C695C695C3708A019B01CA
:100B1000082B192B2A2B3B2BC901B801C23049F0F5
:100B200058F4C13019F00E945C07CBC00E944A07FC
:100B3000C8C00E946E07C5C00E944807C2C01123EA
:100B400019F08C2F817001C08695882309F4B9C0F3
:100B50002D2F229526952770220F220F6D2F6F7053
:100B6000862F90E0A0E0B0E0022E04C0880F991F0D
:100B7000AA1FBB1F0A94D2F7D4FF10C04FE050E069
:100B800060E070E004C0440F551F661F771F2A9570
:100B9000D2F7409550956095709503C040E050E0C5
:100BA000BA01C695C695C3708A019B01082B192B03
:100BB0002A2B3B2BC901B801C23049F058F4C1308F
:100BC00019F00E9421087DC00E940F087AC00E947F
:100BD000330877C00E94820774C0CF70112339F0A8
:100BE0008C2F0E94A8078D2F0E9472046AC08D2F3F
:100BF0000E9479048C2F0E94C90763C0D23F01F183
:100C000028F4D03F41F0D13FA1F03FC0D33FF9F0ED
:100C1000D43F39F13AC0112341F0053008F04DC0FE
:100C20008C2F8F710E94EE0748C0063008F045C037
:100C3000F7CF112339F08C2F8F710E94A8073DC088
:100C40001123C9F38C2F8F710E94C90736C011235D
:100C500029F08C2F8F710E9493072FC00E948E075E
:100C60002CC0112349F0CF718C2F0E94A80763E09C
:100C70008C2F0E94C60C21C081E00E94E10C023042
:100C8000E0F082E00E94E10C18C0112331F0002353
:100C900091F28D2F0E94510310C0002399F2D93395
:100CA00049F41FEF27EE33E0115020403040E1F7C8
:100CB00000C000008D2F0E94F30388EF8C0D84305C
:100CC00020F40E9411260E94F802DD20C9F00E9443
:100CD000200C80FD15C0F70112820E941A0C0E94A0
:100CE000A807C7010E94A1060E941A0CDF91CF91AC
:100CF0001F910F91FF90EF90DF90CF900C94C90758
:100D0000DF91CF911F910F91FF90EF90DF90CF90E7
:100D100008950F931F93CF93DF93EC01688179813E
:100D20008A810E94E8088C010E9445080E943607CB
:100D3000B801CE010E948004DF91CF911F910F91E5
:100D40000895CF93DF93EC01988189812B813C81B9
:100D5000232B31F08F3F31F481E09F3F19F403C022
:100D600081E001C080E080FD19C0CE010E949702A1
:100D700081110CC00E94240C882381F08A81882371
:100D800069F082E0DF91CF910C94E10CCE010E94DA
:100D90008906CE01DF91CF910C947202DF91CF9141
:100DA000089580E090E00E94372680E090E00E9465
:100DB0004D260E946C0C0E946F0C0C94910C80913B
:100DC0008B0190918C010E940F270C94D1060E94F8
:100DD0005C0C0C94DF06E92FE295EF704E2F50E08B
:100DE000FA013297EE30F105B0F4EE59FF4F0C9452
:100DF000302F803F91F018F4883E68F40EC0843F95
:100E000051F40BC0883E48F0813F29F406C093FBA3
:100E1000882780F9089580E0089581E00895FC0115
:100E2000808191810E94DD080E94EB060895CF9396
:100E3000DF9300D000D01F92CDB7DEB70F900F9098
:100E40000F900F900F90DF91CF910895CF93DF9384
:100E500000D000D000D0CDB7DEB726960FB6F894FC
:100E6000DEBF0FBECDBFDF91CF91089508950895E5
:100E70000C9437070C9438070E943A0760933402A9
:100E80007093350280933602909337020C94D1060A
:100E90000C943C070F931F9300913402109135027C
:100EA0002091360230913702602B712B822B932BCD
:100EB0001F910F910C943C070F931F9300913402E4
:100EC0001091350220913602309137026023712350
:100ED000822393231F910F910C943C070F931F9330
:100EE0000091340210913502209136023091370280
:100EF00060277127822793271F910F910C943C073D
:100F00000C9437070E94800760933002709331027F
:100F100080933202909333020C94D10660E070E02B
:100F2000CB010C9482070F931F9341E050E060E0E7
:100F300070E08A019B0104C0000F111F221F331FA4
:100F40008A95D2F7C901B8011F910F910C948207BD
:100F50000F931F9341E050E060E070E004C0440F45
:100F6000551F661F771F8A95D2F7809130029091A6
:100F70003102A0913202B09133028A019B01082B09
:100F8000192B2A2B3B2BC901B8011F910F910C94EF
:100F900082070F931F9341E050E060E070E004C0CF
:100FA000440F551F661F771F8A95D2F740955095BD
:100FB000609570958091300290913102A09132023B
:100FC000B09133028A019B01082319232A233B2372
:100FD000C901B8011F910F910C9482070F931F93C1
:100FE00041E050E060E070E004C0440F551F661F10
:100FF000771F8A95D2F78091300290913102A091AB
:101000003202B09133028A019B01082719272A274F
:101010003B27C901B8011F910F910C9482070F93D0
:101020001F930091300210913102209132023091D1
:101030003302602B712B822B932B1F910F910C94F9
:1010400082070F931F93009130021091310220917B
:1010500032023091330260237123822393231F9144
:101060000F910C9482070F931F93009130021091FF
:10107000310220913202309133026027712782279A
:1010800093271F910F910C9482070895990F990F40
:10109000890FE82FE695E695E695877051E001C047
:1010A000550F8A95EAF785E0E89FF0011124EF5D7E
:1010B000FD4F20E030E070E04081CB01022E02C005
:1010C000969587950A94E2F7817081958427852308
:1010D000842781932F5F3F4F2530310569F70895AD
:1010E000990F990F890F682F669566956695982FC9
:1010F000977085E0689FB001112440E050E080E0E7
:10110000FB01E40FF51FEF5DFD4F208130E0092E5C
:1011100002C0369527950A94E2F721703327042EF2
:1011200001C0220F0A94EAF7822B4F5F5F4F4530D0
:10113000510531F70895BF92CF92DF92EF92FF925F
:101140000F931F93CF93DF938C01C0903002D09008
:101150003102E0903202F09033028091340290919B
:101160003502A0913602B0913702C82AD92AEA2A5C
:10117000FB2ACFE1D0E0D701C6010C2E04C0B69502
:10118000A795979587950A94D2F780FD04C021977B
:1011900090F7B12C07C0BC2EB8018C2F0E94AF0F66
:1011A0000197A9F38B2DDF91CF911F910F91FF90A4
:1011B000EF90DF90CF90BF900895CF93DF93EC0135
:1011C0000E949B08BE010E94AF0FDF91CF9108954E
:1011D0001F93CF93DF93EB0190912002992321F08D
:1011E000CB010E94DD0813C0882349F0CB010E9487
:1011F0009B08182F682FCE010E94460804C0CB011F
:101200000E947008182FBE01812F0E94AF0FDF913E
:10121000CF911F9108951F93CF93DF93C091380210
:1012200016E080913902C81799F0D0E01C9FF001B8
:101230001D9FF00D1124E65CFD4F408151816281BC
:101240007381848195810E9426072196C770E9CF1A
:10125000DF91CF911F91089540916A0250916B02E6
:1012600060916C0270916D0280916E0290916F029C
:101270000C9426070F931F93CF93DF9380916F02F7
:1012800082958F7009F05DC080916C02882309F40B
:1012900058C0809138021091390260916A027091B1
:1012A0006B02C0916D02D0916E0291E06F3F09F028
:1012B00090E0292F06E0811709F443C0209721F020
:1012C0007F3F21F030E003C031E001C0322F90E0D9
:1012D00030FD34C0089FF001099FF00D1124DF019B
:1012E000A65CBD4F11963C911197371327C03C91D6
:1012F000361324C012963C91129731111FC01396D9
:101300004D915C9114974C1B5D0B483C5105B0F41A
:1013100080916F028F70806180936F02E15CFD4F5E
:1013200080818F70806180838AE692E00E94A106AE
:10133000DF91CF911F910F910C940B09019687704B
:10134000BACFDF91CF911F910F9108959F92AF92E5
:10135000BF92CF92DF92EF92FF920F931F93CF93A2
:10136000DF93CDB7DEB761970FB6F894DEBF0FBE3F
:10137000CDBF8C0185E0F801DE011D9601900D9234
:101380008A95E1F7F801E28090916A0260916B0220
:1013900020916D0230916E022115310531F06F3FC1
:1013A00031F481E09F3F19F403C081E001C080E087
:1013B000F82FF1709F2E80FD3FC1F80140815181CF
:1013C000A380B4808AE6C82E82E0D82EF0906C020A
:1013D000F501E21BF30BFF2009F4D9C080916F02E5
:1013E000E83CF10508F095C0282F207F09F052C095
:1013F000561313C0491311C0FE2CE1100EC08F709C
:10140000806180936F020E942C09C6010E94A10690
:1014100080916F02F80185834CC1AB2831F05F3FAA
:1014200031F481E04F3F19F403C081E001C080E056
:1014300080FD03C081E08E2502C080E090E0F82F9F
:10144000F170FF2E80FF1CC080913802209139027C
:1014500036E0821709F40BC190E0389FF001399F04
:10146000F00D1124E65CFD4F6181561306C06081CA
:10147000461303C06281E61203C001968770E9CF6C
:10148000FE2CEE2009F415C180916F0281608093DB
:101490006F0254C0561306C0491304C0E11002C0C5
:1014A000F80199C0C8010E940F07882361F1EE205E
:1014B00051F120916F02822F82958F7090E00297F8
:1014C00074F080916A0290916B0298878F831986DD
:1014D000BB86AA862C87CE0107960E94A10686E0CD
:1014E000F801AAE6B2E001900D928A95E1F70E9418
:1014F0003A090E942C090AC0561711F1C8010E942E
:101500000F0781112CC0C8010E94A106FF24F3948B
:10151000D0C0282F207F81F77A2DB98AA88A6E2D16
:1015200089890E9417078AE692E00E94A10686E058
:10153000F60111928A95E9F70E942C09F12CB9C0A5
:101540004913DCCFE110DACFF8018583C8010E948E
:10155000A10686E0F60111928A95E9F7AAC0EE206D
:1015600091F220916F02822F82958F7090E0029706
:101570000CF4B5CF80916A0290916B029A838983B3
:101580001B82BD82AC822E83CE010196A6CFE83CA1
:10159000F10508F044C0FE2CEE2009F4B4CF561338
:1015A00030C049132EC020916F0220FD21C0822F30
:1015B00082958F70482F50E041155105C9F0F80110
:1015C00025834F30510541F08F5F982F9295907F82
:1015D000822F8F70892B8583C8010E94A10686E027
:1015E000F801AAE6B2E001900D928A95E1F73CC0BD
:1015F00086E0F801AAE6B2E001900D928A95E1F743
:1016000058C0C8010E940F07811169CF80916F02F5
:10161000816080936F02C8010E94A1064AC07A2DA2
:10162000B98AA88A6E2D89890E94170786E0F6017B
:1016300011928A95E9F718C0EE2009F464CFC80129
:101640000E940F07F82E882309F45DCF86E0F80189
:10165000AAE6B2E001900D928A95E1F78AE692E05F
:101660000E944B030E943A090E942C0922C04D8718
:101670005E878D859E850E94DD08292F22952F701B
:10168000223028F49F7039F0811105C00BC024303E
:1016900028F49F7049F4805E883020F0C8010E94D1
:1016A000A1069F2CF92C05C0F8019581907F99F730
:1016B000F9CF8F2D61960FB6F894DEBF0FBECDBF68
:1016C000DF91CF911F910F91FF90EF90DF90CF901E
:1016D000BF90AF909F9008951F93CF93DF93CDB7A6
:1016E000DEB72C970FB6F894DEBF0FBECDBF4F8389
:1016F000588769877A878B879C87CE0107960E94D7
:10170000A6098823D1F09F8188852A853B85232BD4
:1017100031F08F3F31F481E09F3F19F403C081E045
:1017200001C080E080FD47C04F81588569857A857A
:101730008B859C850E9426073EC086E0FE01379679
:10174000DE01119601900D928A95E1F7FF81E885FF
:101750006A857B856115710531F0EF3F31F481E0D9
:10176000FF3F19F403C081E001C080E080FD23C089
:101770002091390230E0C901019687709927409184
:10178000380250E084179507F1F1F983EA837D83ED
:101790006C8396E0929FD001939FB00D1124A65CBC
:1017A000BD4FFE01319601900D929A95E1F780931D
:1017B00039020E940B0916E080913802909139029B
:1017C000891771F1189FC0011124865C9D4F0E94FA
:1017D000A609882329F1E09138021E9FF001112407
:1017E000E65CFD4F408151816281738184819581E6
:1017F0000E9426078091380290E001968770992711
:1018000080933802D9CF0E94E706109239021092D5
:101810003802EAE6F2E086E0DF011D928A95E9F7F8
:101820002C960FB6F894DEBF0FBECDBFDF91CF91DF
:101830001F910895809170028595859585950895ED
:10184000809170028770089590917002977081E086
:1018500009F480E008959091230392FB222720F958
:10186000281751F080FB92F9909323038091220373
:10187000909123030C94280D08958091230382FBFB
:10188000882780F991E089270C942B0C81E00C9437
:101890002B0C80E00C942B0C809194020895909175
:1018A0009402892B809394020895809590919402DC
:1018B0008923809394020895109294020895909140
:1018C0009302892B809393020895809590919302BF
:1018D00089238093930208951092930208951092A1
:1018E0009202089580917102089508950C94750CE8
:1018F0000C94760C9091230392FD08C09091710294
:10190000981721F0809371020C94780C08958091BF
:101910007102882329F01092710280E00C94780CF7
:101920000895E0918B01F0918C0180919402808365
:10193000E0918B01F0918C01908180919302892B31
:101940008083E0918B01F0918C01908180919202D3
:10195000892B808380917102882381F0E0918B0133
:10196000F0918C019081892B808380918B019091E3
:101970008C010E94632681110E94870C80918B014B
:1019800090918C010C941D260C94750C909123035E
:1019900092FD10C098E0899F90011124262B20937E
:1019A00070020E94A80780917002859585958595A3
:1019B0000C94C40C0C94A8071092700280E00C9454
:1019C000C40C209170028095822380937002982F1E
:1019D000977041F430E0482F082E000C550B241767
:1019E000350721F49091230392FF07C085958595D3
:1019F00085950E94C9070C94DC0C08956FEF7FEF6A
:101A000080E090E00C94163080E090E00E94E22F9D
:101A100021E0893E9E4F09F020E0822F089582E068
:101A200090E00C94DA2F83E090E00C94DA2FCF93BF
:101A300084E090E00E94DA2FC82F82E290E00E94BA
:101A4000DA2F2C2F30E0A901582BCA01CF9108952D
:101A5000CF93C92F682F84E090E00E94F82F6C2F5D
:101A600082E290E0CF910C94F82FAB01BC018FE0A3
:101A700090E00C940A30AB01BC0183E190E00C943F
:101A80000A3060E070E0CB010C943B0D60E070E048
:101A9000CB010E94350D0C94410D69EE7EEF80E084
:101AA00090E00E94163060E082E090E00E94F82F03
:101AB00060E083E090E00E94F82F109234021092D0
:101AC0003502109236021092370260E084E090E016
:101AD0000E94F82F60E082E290E00E94F82F60E020
:101AE00085E090E00E94F82F60E086E090E00E94A0
:101AF000F82F6FEF87E090E00E94F82F40E050E071
:101B0000BA0188E090E00E940A3060E08DE090E049
:101B10000E94F82F40E050E0BA0188E190E00E9476
:101B20000A3060E087E190E00E94F82F40E050E04A
:101B3000BA018CE190E00E940A3060E070E080E23F
:101B400090E00E94163040E050E0BA0188E190E059
:101B50000E940A300C94460D0C944D0D682F8EE0B7
:101B600090E00C94F82F0E94BB276093A002709322
:101B7000A1028093A2029093A30260939C027093AF
:101B80009D0280939E0290939F02089585B780687E
:101B900085BF85B7806885BF089581E008950C945E
:101BA000CD0D08950C94D10D0C94D10D0C94D40D41
:101BB0000C94D10D0C94D80D0C94D10D0E94C60D2F
:101BC0008BE890E10E943C280E94DC0D0C94DA0D19
:101BD0000E94D20D0C94D10D0E94A6270E94821162
:101BE0000C94D60D9F92AF92BF92CF92DF92EF925C
:101BF000FF920F931F93CF93DF93CDB7DEB72A9752
:101C00000FB6F894DEBF0FBECDBF0E9493118111B5
:101C10000E94B30D86E9A82E82E0B82E00E010E005
:101C2000902E802F0E94C910D82EF501C1905F011F
:101C3000C826B1F40F5F1F4F0630110589F78FEFEB
:101C400089838A831B820E94AF278160782F9D83BE
:101C50008C8349815A816B818D810E94010338C038
:101C60008091A40281FD0E94CF10F12CEE24E39418
:101C70008C2D8E2139F10E94CF0DDE20882399F022
:101C8000FE829F8281E0D11001C080E088870E949F
:101C9000AF278160782F9A8789874E815F81688519
:101CA0008A850E940103F801EA56FD4F8081E826EB
:101CB000E08241E0D11001C040E06F2D892D0E94EB
:101CC000441F06C0F394EE0CF4E0FF12D1CFB2CF64
:101CD0000E9406200E941126909195028917B9F062
:101CE0000E941126809395022A960FB6F894DEBFC3
:101CF0000FBECDBFDF91CF911F910F91FF90EF905D
:101D0000DF90CF90BF90AF909F900C94F8022A96EE
:101D10000FB6F894DEBF0FBECDBFDF91CF911F91FC
:101D20000F91FF90EF90DF90CF90BF90AF909F907A
:101D30000895CF93DF930E94B40FEC01811522E543
:101D40009207E8F5811531E5930708F0B6C0883EA3
:101D5000910528F5803E910508F0E9C0883A910583
:101D600070F4853A910508F07AC08130910509F444
:101D700073C008F4D9C0049708F0D9C0D5C08F3B10
:101D8000910508F0D1C0C85AD0E0CC0FDD1FCE526B
:101D9000DE4F0990D881C02DCE019464C9C0811551
:101DA00040E5940708F069C0811550E4950708F0F4
:101DB00060C09A9581159F4108F4B9C0B5C08115DE
:101DC00036E5930728F5811545E5940708F092C09C
:101DD000811554E5950708F087C0AC01437055277D
:101DE000282F26952695C115D34508F06CC081E0B3
:101DF00090E002C0880F991F4A95E2F740E2249FC5
:101E000090011124EC01C22BD32BCE019C6890C011
:101E100081152AE5920780F4811539E5930708F0CA
:101E200072C0811548E5940708F47EC0D82FCC27EE
:101E3000CE01806F906A7CC090568115904208F068
:101E400073C08D2F8F710E944810DD27D0628F7173
:101E5000AE01582BCA016CC081E090E069C0C55A40
:101E6000D0E0C050DE4F8881C82FD0E0CE01906412
:101E70005FC0DF70CE01906A5BC074E09695879575
:101E80007A95E1F7282F23703C2F337081E090E0A2
:101E900002C0880F991F3A95E2F79C68AC01522B5B
:101EA0009A019C2F9F709695969550E2959FE00120
:101EB0001124C9018C2B9D2B3BC0D82FCC27CE01E0
:101EC000816F906A35C081E090E002C0880F991F51
:101ED0004A95E2F750E2259F90011124EC01C22BB4
:101EE000D32BCE019A6824C0D82FCC27CE01846F83
:101EF000906A1EC00E9448108F7190E0D82FCC27A6
:101F0000CE01906215C08F700E94481094E0D69563
:101F1000C7959A95E1F7CF70D0E0DC2FCC27D06938
:101F20009E01282BC90104C080E090E001C0CE01D1
:101F3000DF91CF910895E72FF0E096E0899FE00DC3
:101F4000F11D1124EE0FFF1FEE0FFF1FE60FF11D15
:101F5000EE0FFF1FE85BFE4F8591949108950E945C
:101F60009B0F0E94990E08958238910569F1B0F493
:101F70008133910509F46DC048F48932910509F463
:101F800063C08A32910509F469C0089585339105CB
:101F900009F455C089339105B9F00895833E910540
:101FA00069F138F4803E9105B1F0823E910509F166
:101FB0000895863E9105A9F1873E9105B9F1843EC9
:101FC000910509F064C023C02091220320FD4FC079
:101FD00021FD4DC008958091220380FD44C0809171
:101FE000230380FF44C08091220384FD42C083EE1E
:101FF0004DC08091220382FF38C0F5CF809122032B
:1020000082FD33C08091230380FD31C0ECCF8091ED
:10201000230381FF32C08091220384FD2AC087EE12
:1020200035C08091220383FF26C0F5CF8091220323
:1020300083FD21C08091230381FD1FC0ECCF8091DF
:10204000220385FD1CC01DC08091220385FD19C09F
:1020500016C08091220386FD16C017C0809122030E
:1020600086FD13C010C089E311C082EE0FC080EE60
:102070000DC080E00BC086EE09C084EE07C089E287
:1020800005C085E303C08AE201C081E390E00895C2
:102090009091220392FF0DC0282F2871283019F447
:1020A000877F846006C0282F2471243011F48B7F31
:1020B000886093FF0DC0282F2871283119F4877E7E
:1020C000846106C0282F2471243111F48B7E88612D
:1020D0002091230320FF0DC0382F3871383019F4B8
:1020E000877F816006C0382F3171313011F48E7FC7
:1020F000886021FF0DC0282F2871283119F4877EB0
:10210000816106C0282F2171213111F48E7E8861F2
:1021100094FD877E089580E008950C94FE0C0E9443
:1021200093118FE39CE90197F1F700C000000E9432
:10213000931180E00E94C91080FF04C00E948D109E
:102140000C94182808950C948F100E94040D81118E
:1021500002C00E94AC0D0E940F0D8093A4020E9449
:10216000170D90932303809322030E94A3100E94D3
:10217000130D682F70E080E090E00E9448076091A6
:1021800030027091310280913202909133020C94AE
:102190008007E82FF0E0E65DFC4F80810895089508
:1021A00080EA8A95F1F7089500C008950C94D01044
:1021B00008950C94D8100C94D9100C94D8100C9449
:1021C000DD10F894E82FE295EF70F0E031A1282FB0
:1021D0002F7081E090E001C0880F2A95EAF7982FD0
:1021E0009095932391A392A1892B82A3789408952B
:1021F0000F931F93CF93DF93C7E0D2E089918F3F76
:1022000011F00E94E11082E0CD30D807B9F7C3E0A9
:10221000D2E007E012E089918F3F11F00E94E110B7
:102220000C171D07C1F7DF91CF911F910F910895F2
:10223000CF92DF92EF92FF920F931F93CF93DF9392
:102240008C01C62FD0E0CE01895F9D4F7C01FC013F
:1022500090819F3F09F44DC0D62EF894E92FE29566
:10226000EF70F0E081A19F7021E030E001C0220F0B
:102270009A95EAF7822B81A382A12095282322A395
:1022800078940E94D410E3E0F2E020E030E0C12C2A
:1022900051E041914F3FB1F0A42FA295AF70B0E053
:1022A00090968C9190E04F7002C0959587954A95D5
:1022B000E2F780FD07C0852F022E01C0880F0A9427
:1022C000EAF701C080E0C82A2F5F3F4F2430310574
:1022D00001F7F70180818F3F11F00E94E11061E06A
:1022E000C11001C060E08D2D0E94D610C00FD11F1B
:1022F000C882DF91CF911F910F91FF90EF90DF90F7
:10230000CF9008950E94F810E4E2F3E0AAE2B3E06F
:1023100011921D9283E0EA32F807D1F786E00E941D
:10232000DB110C947D02FF920F931F93CF93DF93E9
:1023300000D000D000D0CDB7DEB78E010F5F1F4FA9
:1023400086E0F80111928A95E9F7F12C6F2DC8010A
:102350000E941811F394F6E0FF12F8CF46E050E027
:10236000B80184E293E00E94B42FFF24F394009715
:1023700009F4F12C892B41F086E0F801A4E2B3E0E6
:1023800001900D928A95E1F72F2D46E06AE273E005
:1023900084E293E00E94DC110E9485028F2D269634
:1023A0000FB6F894DEBF0FBECDBFDF91CF911F9166
:1023B0000F91FF9008950895FF920F931F93CF936D
:1023C000DF938C01F62ED72FC42F222349F081E012
:1023D0008093A7020E94AF279093A6028093A50244
:1023E0008091A7028823C1F08091A5029091A60256
:1023F0000E94C727059780F0EF2DFD2FD8014C2FA5
:1024000050E0CD01801B910B841795071CF48D9132
:102410008193F7CF1092A702DF91CF911F910F9177
:10242000FF9008950E9421270E9494290E94AD29BF
:102430000E94BF290E94E80DFBCFEF92FF920F93FD
:102440001F93CF93DF938B01682F11110AC0442390
:1024500029F0E82FF0E0E855FE4F6491762F862FA3
:1024600075C0212F30E0E82FF0E0442321F0E8553B
:10247000FE4FE491F0E046E0049FC0011124CFEF4D
:10248000D0E0BE010E94E92E4BEA4603C001479FFF
:10249000900D1124800F911D800F911D982F990F81
:1024A000890FAE01421B530B4E9FD0014F9FB00DC1
:1024B0005E9FB00D11249B2F189FA0011124452F62
:1024C00055278E01041B150B0E9FA0010F9F500D69
:1024D0001E9F500D11247E01E81AF108E29E800132
:1024E000E39E100DF29E100D1124212F3327C21BE5
:1024F000D30BCE9F9001CF9F300DDE9F300D112466
:1025000062307105A9F048F46115710569F0613018
:102510007105C9F48B2F752F0DC06430710581F0E2
:1025200058F06630710579F47E2F8B2F932F0DC0F4
:10253000832F7B2F9E2F09C08E2F7B2F952F05C0B9
:102540008E2F732F02C07E2F852F692FDF91CF91A1
:102550001F910F91FF90EF90089541E00E941D128E
:10256000089520E030E0869F212D969F200D311D9B
:102570001124C9010895BC018230910508F4089521
:10258000613E8EE1780748F49B0195E036952795EA
:102590009A95E1F748E0420F01C04FEF91E0242FF8
:1025A00030E0290F311D35952795229FF001239F9B
:1025B000F00DF00D11246E177F0718F44FEF420F46
:1025C00004C02F3F39F091E0920F491740F78FEF89
:1025D000890F08958FEF0895482F982F46FD909505
:1025E000E92FEF739F7046FD9F5FE295EF70EE0F4E
:1025F000F0E0E35FFD4F2181299F802D212D1124E3
:1026000082958F702295207F822B3081982F930F97
:10261000892F47FD819580580895E42FF0E0EE0F53
:10262000FF1FE45EFE4F408134EE439F412D112495
:10263000E72FF0E050E0445E5F4FDA01A21BB109E2
:102640009D01B7FF03C031952195310993E0220F19
:10265000331F9A95E1F7AF01421B530B9A0157FFC5
:1026600002C020E030E0279F212D1124722F089511
:10267000E42FF0E0EE0FFF1FE45EFE4F408134EEEA
:10268000439F412D1124E82FF0E050E0445E5F4F5E
:10269000DA01A21BB1099D01B7FF03C03195219555
:1026A000310993E0220F331F9A95E1F7AF01421BE6
:1026B000530B9A0157FF02C020E030E0582F259FAE
:1026C000212D1124822F0895622F0895E42FF0E028
:1026D000EE0FFF1FE45EFE4F6081621B0895E42F42
:1026E000F0E0EE0FFF1FEC5FFE4F618D621B08955F
:1026F000A22F50E0FA01EE0FFF1FEC5FFE4F918D0D
:10270000905297FD9195440F551FFA01E45EFE4FDC
:102710003081232F30E02A1B3109290F311D97FD0D
:102720003A95620F0895EF920F931F9393E0099FDC
:1027300080011124159507956E2D600F1F910F9143
:10274000EF9008950F93CF93DF93D72FC82F47FDB6
:102750004195E8E3F0E0CF01841B910947FD939593
:10276000889FB001899F700D700D1124229FC001B8
:10277000239F900D900D1124860F971F0E94BB126E
:10278000682F660F860F682F600F7D2F8C2FDF91CB
:10279000CF910F9108950F931F93522F10E0F801DE
:1027A000EE0FFF1FEC5FFE4FE18DF0E0B0979F0151
:1027B0005203D001539FB00D1124000F111FF801D7
:1027C000E45EFE4F008110E00057110940039001C4
:1027D000419F300D11242A0F3B1F37FF02C02158A3
:1027E0003F4F220F232F221F330B620F1F910F9198
:1027F00008950F931F93522F10E0F801EE0FFF1F63
:10280000EC5FFE4FE18DF0E0B097EE0FFF1F9F01F0
:102810005203D001539FB00D1124000F111FF80176
:10282000E45EFE4F008110E000571109000F111FF8
:1028300040039001419F300D11242A0F3B1F37FFA9
:1028400002C021583F4F220F232F221F330B620F4C
:102850001F910F9108950F931F9310E0F801EE0F51
:10286000FF1FE45EFE4F9081905797FD9195000FFA
:10287000111FF801EC5FFE4FE18DF0E0B097DF0132
:10288000AA0FBB1F8D010E0F1F1F2003D001219F18
:10289000B00D1124E8E3F0E0E91BF10997FDF39591
:1028A0009F01220F331F89010E0F1F1F400390014C
:1028B000419F300D11242A0F3B1F37FF02C02158C2
:1028C0003F4F220F232F221F330B620F1F910F91B7
:1028D00008950F931F93CF93DF93D62F072F182FB1
:1028E000C42F822F0E94EC12EC2FF0E0EE0FFF1F9E
:1028F000E45EFE4F90819058890F87FD8195880F87
:10290000682F2CE0629F612D11246D0F702F812F95
:10291000DF91CF911F910F910895E42FF0E0EE0F1A
:10292000FF1FE45EFE4F9081921B97FD9195292F2A
:1029300038E1239F212D1124620F08954095282FFF
:10294000429F412D1124842F089522E8241B08F46E
:1029500020E0620F0895EF92FF920F93970195E0A8
:10296000099F200D311D11242F3F310519F010F062
:102970002FEF30E02095382F320F08F43FEF832FF0
:102980000F91FF90EF900895EF92FF920F93E00E5A
:10299000F11CF90137FF03C0F195E195F10924E03D
:1029A000EE0FFF1F2A95E1F7EF3FF10519F014F044
:1029B000EFEFF0E09A0157FF03C0319521953109FF
:1029C00094E0220F331F9A95E1F72E173F070CF47E
:1029D000F901EE0DFF1DEF3FF10519F010F0EFEFDB
:1029E000F0E02E2F2095382F320F08F43FEF832F81
:1029F0000F91FF90EF900895EF92FF920F93972F12
:102A0000093438F4B701601B71096F3F710519F083
:102A100010F06FEF70E0485F5F4F4131510540F0BB
:102A2000A901485F5F4F4131510510F06FEF70E031
:102A30006095482F460F08F44FEF842F37FF02C0F0
:102A40002D5F3F4F3595279535952795609131033B
:102A5000620F792F0F91FF90EF900895EF92FF9200
:102A60000F939701201B31092F3F310519F010F00A
:102A70002FEF30E0322F3095482F430F08F44FEFFF
:102A8000842F620F0F91FF90EF900895EF92FF92C5
:102A90000F939701201B31092F3F310519F010F0DA
:102AA0002FEF30E02095382F320F08F43FEF832FBF
:102AB0000F91FF90EF900895FC019B01009721F486
:102AC00077FF2BC080E80895AC0197FF04C044272E
:102AD0005527481B590BB901640F751F37FD0CC0F2
:102AE000241B350BC901A5E0880F991FAA95E1F7B2
:102AF0000E94FD2E80E20CC0CB0165E0880F991F7B
:102B00006A95E1F7BA01621B730B0E94FD2E80E605
:102B1000861BF7FF03C08195089580E00895FF921A
:102B20000F931F93CF93DF93F62E172FD82FC90142
:102B3000C72FC01BBA010E945C15982F990F890FEF
:102B40007C2F781B719F712D11246F2D8D2FDF919C
:102B5000CF911F910F91FF900895FF920F931F93B4
:102B6000CF93DF93F62ED72F182FC901C12FC01B8B
:102B7000BA010E945C15982F990F890FC81B2C2F42
:102B8000219F212D1124822F6F2D7D2FDF91CF9139
:102B90001F910F91FF900895EF920F931F93CF9382
:102BA000DF93D62F172FC82FC9010E19070FBA01AF
:102BB0000E945C15702F781B719F712D11246D2F51
:102BC0008C2FDF91CF911F910F91EF900895EF928D
:102BD0000F931F93CF93DF93D62FC72F182FC901C1
:102BE0000E19010FBA010E945C15081B202F219FAE
:102BF000212D1124822F6D2F7C2FDF91CF911F91DA
:102C00000F91EF9008950F93CF93DF93D72FC82F95
:102C1000C901BA010E945C15682F600F7D2F8C2FAF
:102C2000DF91CF910F910895EF920F93CF93DF93A0
:102C3000D72FC82FC9010E19BA010E945C15602F49
:102C4000681B7D2F8C2FDF91CF910F91EF9008950E
:102C50000E94AD120895FF920F931F93CF93DF93BD
:102C6000FF24FA94F80EA1E0A80F4FEF460F91E071
:102C7000960FC82FD0E0461780F49E01220F331F15
:102C8000220F331F29523D4F240F311DF90150816E
:102C900070E1570F08F45FEF5083262F30E0CC0F20
:102CA000DD1FCC0FDD1FC952DD4F8E01020F131F38
:102CB000F801508170E2570F08F45FEF50839430B1
:102CC00040F4C90FD11D588170E1570F08F45FEF30
:102CD0005883A63058F5B0E0461778F4ED01CC0FD4
:102CE000DD1FCC0FDD1FC952DD4FC40FD11D588130
:102CF0007DE0570F08F45FEF5883AA0FBB1FAA0FA0
:102D0000BB1FA952BD4FED01C20FD31F588170E107
:102D1000570F08F45FEF5883943040F4A90FB11DAA
:102D20005C917DE0570F08F45FEF5C93F81660F557
:102D3000EF2DF0E0461778F4DF01AA0FBB1FAA0FB2
:102D4000BB1FA952BD4FA40FB11D4C915DE0450FB3
:102D500008F44FEF4C93EE0FFF1FEE0FFF1FE952E9
:102D6000FD4FDF01A20FB31F2C9130E1230F08F4B8
:102D70002FEF2C93943040F4E90FF11D20813DE0BA
:102D8000230F08F42FEF2083DF91CF911F910F9134
:102D9000FF90089546E050E06CE170E080E393E03E
:102DA0000C94CA2F46E050E06CE170E080E393E0C1
:102DB0000C94E82FE0E3F3E085E3808380919E01AB
:102DC00090919F01A091A00181839283A3838FE7BB
:102DD00084838FEF85830C94D21680E008950F933F
:102DE0001F93CF93DF93C82FD62F8A010E94ED1631
:102DF00094E0C99FF0011124EC5FFE4FED0FF11D2F
:102E000090819F3F29F0F801E80FF11D90838F5FBB
:102E1000DF91CF911F910F910895E0911B02F091E6
:102E20001C020994E0911702F091180209944F9244
:102E30005F926F927F928F929F92AF92BF92CF924A
:102E4000DF92EF920F931F93CF93DF932C013B01FF
:102E5000FC01C081CC0FCC0FCC0FD8E0DC0FD632F8
:102E600008F0D5E260913403669580913603909125
:102E700037030E94B112182FCD1708F044C08C2ED2
:102E8000912CF401EA59FE4F9081F201818189234E
:102E9000C1F1F401EE0FFF1FE45EFE4FC080D12CA4
:102EA000F0E7CF1AD108F401EE0FFF1FEC5FFE4FE1
:102EB000A18CB12C80E2A81AB108CC9C9001CD9CC9
:102EC000300D300D1124AA9CC001AB9C900D900DCB
:102ED0001124820F931F0E94BB12082F60913103AF
:102EE0007091320380913303E12E9501A601F30125
:102EF00009950E942816462F282F672FC4010E948B
:102F00001217CF5FB9CF81E0D53208F080E0DF91B2
:102F1000CF911F910F91EF90DF90CF90BF90AF9026
:102F20009F908F907F906F905F904F9008956CEC82
:102F300075E10C94171767EE75E10C94171763E9A8
:102F400073E10C94171764E176E10C941717AF92B4
:102F5000BF92CF92DF92EF92FF920F931F93CF9386
:102F6000DF936C015B01FC01C081CC0FCC0FCC0F57
:102F7000D8E0DC0FD63208F0D5E2609134036695D4
:102F800080913603909137030E94B112182FCD170C
:102F900078F5EC2EF12CF701EA59FE4F9081F601FD
:102FA0008181892319F1F701EE0FFF1FEC5FFE4FBE
:102FB000218D30E020523109F701EE0FFF1FE45E52
:102FC000FE4F408150E040575109609131037091AC
:102FD000320380913303012FF50109950E942816D1
:102FE000462F282F672FC7010E941217CF5FCFCF20
:102FF00081E0D53208F080E0DF91CF911F910F91F1
:10300000FF90EF90DF90CF90BF90AF9008956FE862
:1030100075E10C94A7176DEA75E10C94A71762EAA5
:1030200073E10C94A71763E076E10C94A717BF92A5
:10303000CF92DF92EF92FF920F931F93CF93DF9384
:103040008C017B01FC01C081CC0FCC0FCC0FD8E0F0
:10305000DC0FD63208F0D5E26091340366956695B0
:1030600021E0620F08F46FEF8091360390913703EF
:103070000E94B112B82ECD17F0F4CC2ED12CF6014F
:10308000EA59FE4F9081F8018181892391F0609186
:10309000310370913203809133032B2D4C2FF701B4
:1030A00009950E942816462F282F672FC6010E94D7
:1030B0001217CF5FE0CF81E0D53208F080E0DF91DA
:1030C000CF911F910F91FF90EF90DF90CF90BF9025
:1030D00008956DE073E10C94171868E373E10C94A4
:1030E000171864E673E10C94171866E673E10C9404
:1030F00017186FE673E10C94171868E773E10C94E6
:10310000171869E674E10C9417186DE874E10C94D3
:1031100017187F928F929F92AF92BF92CF92DF92B9
:10312000EF92FF920F931F93CF93DF936C015B019C
:10313000FC01C081CC0FCC0FCC0FD8E0DC0FD63215
:1031400008F0D5E260913403669566958091360368
:10315000909137030E94B112182F80E4810F0E94D2
:10316000EC1290E8F92EF80E812F0E94EC1220E864
:10317000722E780ECD1700F58C2E912CF401EA59A1
:10318000FE4F9081F60181818923A1F06091310386
:103190007091320380913303E12E0C2F272D4F2D98
:1031A000F50109950E942816462F282F672FC40184
:1031B0000E941217CF5FDECF81E0D53208F080E0A9
:1031C000DF91CF911F910F91FF90EF90DF90CF9003
:1031D000BF90AF909F908F907F9008956BEC73E1BC
:1031E0000C94891869EF73E10C9489186BE274E10F
:1031F0000C948918AF92BF92CF92DF92EF92FF9218
:103200000F931F93CF93DF938C017B01FC01C0814F
:10321000CC0FCC0FCC0FD8E0DC0FD63208F0D5E2C3
:103220002091340331E0230F08F42FEF30E040E029
:1032300050E06FEF7FEF80E090E00E94112F690176
:10324000CD1708F041C0AC2EB12CF501EA59FE4F64
:103250009081F80181818923A9F190913A039150DD
:1032600097FD15C0292F092E000C330BF901E65CE0
:10327000FC4F8189C813F3CF220F331FF901E65C9D
:10328000FC4F218D328D2C153D0548F701C096016C
:103290006091340341E0640F08F46FEFC9010E94AC
:1032A000B112AC016091310370913203809133030C
:1032B000F70109950E942816462F282F672FC50170
:1032C0000E941217CF5FBCCF81E0D53208F080E0BA
:1032D000DF91CF911F910F91FF90EF90DF90CF90F2
:1032E000BF90AF9008956EE974E10C94FA1865EA06
:1032F00074E10C94FA182F923F924F925F926F9262
:103300007F928F929F92AF92BF92CF92DF92EF9275
:10331000FF920F931F93CF93DF93CDB7DEB729971B
:103320000FB6F894DEBF0FBECDBF8B834B013A01C1
:10333000DB011C91110F110F110FB8E0B10FB98310
:10334000B63210F0E5E2E983F0913A03FA8389811D
:10335000181708F07FC0A12EB12CF501EA59FE4FD5
:103360009081D40111968C91892309F471C0209029
:103370003103309032034B80512CC501880F991FC7
:10338000FC01E45EFE4FFD83EC83C501880F991FAD
:103390009C01235E3E4F3F832E83FA814F1608F037
:1033A00047C0E42CF12CAC81BD81BC91EB2FF0E047
:1033B000F987E887F701E65CFC4F8181288539852C
:1033C000281B310939872887AE81BF81CC90D12C49
:1033D0008185C81AD108F901EE9F9001EF9F300D49
:1033E000300D1124CC9CC001CD9C900D900D11246A
:1033F000820F931F0E94BB12082F6091340321E0BB
:10340000620F08F46FEFF701EE0FFF1FE65CFC4F51
:10341000818D928D0E94B1127C019601488559855B
:10342000B101852DF30109951B014394582EB5CFA9
:1034300020913303352D329F312D1124832FB1017B
:103440000E942816462F282F672FC5010E941217A9
:103450001F5F7DCF81E09981953208F080E0299649
:103460000FB6F894DEBF0FBECDBFDF91CF911F9195
:103470000F91FF90EF90DF90CF90BF90AF909F9013
:103480008F907F906F905F904F903F902F90089516
:1034900020913A0331E0231B08F420E04BEA54E189
:1034A000BC01822F0C947B194BEA54E1BC0180E0F3
:1034B0000C947B1920913A0331E0231B08F420E09F
:1034C00044EC54E1BC01822F0C947B1944EC54E190
:1034D000BC0180E00C947B1920913A0331E0231B5E
:1034E00008F420E04CEF54E1BC01822F0C947B19CE
:1034F0004CEF54E1BC0180E00C947B1920913A031D
:1035000031E0231B08F420E04EE255E1BC01822F9C
:103510000C947B194EE255E1BC0180E00C947B19C0
:1035200020913A0331E0231B08F420E046E455E102
:10353000BC01822F0C947B1946E455E1BC0180E06C
:103540000C947B19DF92EF92FF920F931F93CF930E
:10355000DF938C01DC01CC91CC0FCC0FCC0FD8E0E9
:10356000DC0FD63208F0D5E260913103709132035E
:10357000809133030E942816F62EE72ED82ECD1701
:1035800098F4EC2FF0E0DF01AA59BE4F8C91D801DE
:1035900011969C91982331F02D2D4F2D6E2DCF013A
:1035A0000E941217CF5FEBCF81E0D53208F080E0A8
:1035B000DF91CF911F910F91FF90EF90DF900895D1
:1035C000AF92BF92CF92DF92EF92FF920F931F9331
:1035D000CF93DF938C01FC01C081CC0FCC0FCC0FBB
:1035E000D8E0DC0FD63208F0D5E2E0903203F0905C
:1035F0003303D09031036D2D7E2D8F2D0E94281620
:10360000C62EB72EA82E609134036D0D7E2D8F2D02
:103610000E942816F62EE72ED82ECD17B8F48C2F40
:1036200090E0FC01EA59FE4F3081F801218123230B
:1036300059F030FF04C02D2D4F2D6E2D03C02A2DC3
:103640004C2D6B2D0E941217CF5FE7CF81E0D53252
:1036500008F080E0DF91CF911F910F91FF90EF90E4
:10366000DF90CF90BF90AF900895BF92CF92DF923E
:10367000EF92FF920F931F93CF93DF936C01FC01A6
:10368000C081CC0FCC0FCC0FD8E0DC0FD63208F0C5
:10369000D5E200913203B09033032091340310E45B
:1036A000129F112D1124CD1718F5EC2EF12CF701D6
:1036B000EA59FE4F9081F60181818923B9F0F70123
:1036C000EE0FFF1FEC5FFE4F818D82958F70609132
:1036D0003103819F600D1124702F8B2D0E942816BD
:1036E000462F282F672FC7010E941217CF5FDBCF0D
:1036F00081E0D53208F080E0DF91CF911F910F91EA
:10370000FF90EF90DF90CF90BF900895BF92CF923F
:10371000DF92EF92FF920F931F93CF93DF937C0181
:10372000FC01C081CC0FCC0FCC0FD8E0DC0FD6321F
:1037300008F0D5E2C0903203B090330320913403F7
:1037400030E4D32E3D2D329F312D1124D32ECD17B1
:1037500038F50C2F10E0F801EA59FE4F9081F7017F
:1037600081818923D9F0F801EE0FFF1FE45EFE4F3F
:103770006081D69EB001112495E0759567959A9564
:10378000E1F780913103680F7C2D8B2D0E94281664
:10379000462F282F672FC8010E941217CF5FD7CF5F
:1037A00081E0D53208F080E0DF91CF911F910F9139
:1037B000FF90EF90DF90CF90BF900895DF92EF924F
:1037C000FF920F931F93CF93DF938C01DC01CC9179
:1037D000CC0FCC0FCC0FD8E0DC0FD63208F0D5E2FE
:1037E000E0903103F0903203D090330360913403C2
:1037F00066956695669580913603909137030E9491
:10380000B1120E94EC12805887FD8195880F282FF5
:103810003D2D239F212D1124822FB7010E942816B0
:10382000F62EE72ED82ECD1798F4EC2FF0E0DF011E
:10383000AA59BE4F8C91D80111969C91982331F0D2
:103840002D2D4F2D6E2DCF010E941217CF5FEBCF84
:1038500081E0D53208F080E0DF91CF911F910F9188
:10386000FF90EF90DF900895DF92EF92FF920F9319
:103870001F93CF93DF93EC01FC01EA59FE4F908137
:10388000692381F1D0903203009133031091310309
:10389000E12EF12C0E94A42F282FC7018C549F4F9A
:1038A00068E671E00E94FD2E8E199F0997FD039630
:1038B00095958795959587952370612F289F600D25
:1038C00011247D2D802F0E942816462F282F672F28
:1038D000CE01DF91CF911F910F91FF90EF90DF907C
:1038E0000C941217DF91CF911F910F91FF90EF90E1
:1038F000DF900895CF92DF92FF920F931F93CF93A3
:10390000DF938C01FC01C281C1111DC060913403A1
:1039100020E1620F08F46FEF809136039091370336
:103920000E94B1126AE070E00E94E92E892B51F5E5
:103930000E94A42F65E270E00E94FD2EF8016181D3
:103940000E94341C1FC0FC01C081CC0FCC0FCC0FD7
:1039500098E0F92EFC0EF5E2FF1510F485E2F82E42
:10396000D0E0CF2CD12CCC15DD053CF4F8016181E1
:10397000CE010E94341C2196F6CFC1E0F4E2FF157F
:1039800008F4C0E08C2FDF91CF911F910F91FF9031
:10399000DF90CF9008951F93CF93DF93FC01EA59F6
:1039A000FE4F20816223D1F0EC010E94A42F182F3A
:1039B0000E94A42F8F77782F20E8720F08F47FEFF2
:1039C000612F809133030E942816462F282F672FDE
:1039D000CE01DF91CF911F910C941217DF91CF91FF
:1039E0001F910895CF92DF92FF920F931F93CF9371
:1039F000DF938C01FC01C281C1111DC060913403B1
:103A000020E1620F08F46FEF809136039091370345
:103A10000E94B11265E070E00E94E92E892B51F5F9
:103A20000E94A42F65E270E00E94FD2EF8016181E2
:103A30000E94CB1C1FC0FC01C081CC0FCC0FCC0F4F
:103A400098E0F92EFC0EF5E2FF1510F485E2F82E51
:103A5000D0E0CF2CD12CCC15DD053CF4F8016181F0
:103A6000CE010E94CB1C2196F6CFC1E0F4E2FF15F7
:103A700008F4C0E08C2FDF91CF911F910F91FF9040
:103A8000DF90CF900895DF92EF92FF920F931F93F4
:103A9000CF93DF938C01DC01CC91CC0FCC0FCC0FFA
:103AA000D8E0DC0FD63208F0D5E2E0903203F09097
:103AB0003303D09031036091340366956695669523
:103AC00080913603909137030E94B1120E94EC124C
:103AD000805887FD8195880F682F2CE0629F612DAB
:103AE00011246D0D7E2D8F2D0E94AD12F62EE72E26
:103AF000D82ECD1798F4EC2FF0E0DF01AA59BE4F75
:103B00008C91D80111969C91982331F02D2D4F2D39
:103B10006E2DCF010E941217CF5FEBCF81E0D5321F
:103B200008F080E0DF91CF911F910F91FF90EF900F
:103B3000DF900895E0911902F0911A0209942F92F2
:103B40003F924F925F926F927F928F929F92AF922D
:103B5000BF92CF92DF92EF92FF920F931F93CF937A
:103B6000DF93CDB7DEB72A970FB6F894DEBF0FBE4E
:103B7000CDBF5C01DC010C91000F000F000F48E08D
:103B8000442E400EB8E1B41510F438E1432EF5018F
:103B90008281882361F040E060E080E00E949A1D0D
:103BA00088E1E7EDF2E0DF011D928A95E9F7F50182
:103BB0008081811115C08091F0029091F1020E94E4
:103BC000C72721E08931910508F420E02093EF0216
:103BD000499730F00E94AF279093F1028093F00252
:103BE00010E0842D90E09A878987DE0111964D01BF
:103BF0002AEA222E89859A85081719070CF060C0D9
:103C0000C80166E070E00E94FD2E7B013C01660C5D
:103C1000771C660C771CF301E952FD4FE60FF71F86
:103C20005080A4010E94EF16382E64018C2D881953
:103C3000831508F032C0D601EC91F0E0EA59FE4F4E
:103C40009081F5018181892321F1252D35E5231B03
:103C500008F420E0622D621B70913203222D352D75
:103C6000230F08F42FEF3091330382E0289F200DBB
:103C700011242E5F239F212D1124822F0E942816AC
:103C8000462FD6019C91282F672F892F90E00E9404
:103C90001217BFEFCB1ADB0AC9CF8091EF0288233E
:103CA00061F0252D31E0231B08F420E0C301895287
:103CB0009D4FFC01EE0DFF1D20830F5F1F4F9ACF1C
:103CC00081E097E1941508F480E02A960FB6F89405
:103CD000DEBF0FBECDBFDF91CF911F910F91FF903F
:103CE000EF90DF90CF90BF90AF909F908F907F909C
:103CF0006F905F904F903F902F9008956F927F92BA
:103D00008F929F92AF92BF92CF92DF92EF92FF92EB
:103D10000F931F93CF93DF93CDB7DEB728970FB6DE
:103D2000F894DEBF0FBECDBFDC0112968C918823C4
:103D300071F040E060E080E00E949A1D88E1E7EDCC
:103D4000F2E0DF011D928A95E9F71092A80287ED53
:103D5000E82E82E0F82E812C77247A9490EDC92EFB
:103D6000D12C20EC622E3FE2A32EB12C8701912CA6
:103D700091100CC08091A802811108C00E94A42F4C
:103D8000853595401CF4F701708206C0D8018C91EE
:103D900081508E3F08F48C93AE014F5F5F4F682DCA
:103DA000892D0E94EF16882309F1F8012081E9810D
:103DB000213D70F030E0205D3109629EC001639EBC
:103DC000900D1124B5010E94E92E262F4FEF0AC055
:103DD000FFEF2F9FC0011124B6010E94E92E462F4C
:103DE00020E060E08E2F90E00E94121793940C5F09
:103DF0001F4F26E09212BCCF83943FEFE31AF30AE1
:103E000044E08412B3CF8091A8028F5F8D3120F1FE
:103E10001092A80227EE32E085E09EEFA7EDB2E017
:103E2000F901853041F454964C9154974F3F19F461
:103E300054969C93549740814F3F11F49083448350
:103E40003196119642E0AB3DB40759F781502450AA
:103E500031098111E3CF02C08093A80280E0289647
:103E60000FB6F894DEBF0FBECDBFDF91CF911F918B
:103E70000F91FF90EF90DF90CF90BF90AF909F9009
:103E80008F907F906F900895AF92BF92DF92EF92E4
:103E9000FF920F931F93CF93DF93CDB7DEB7289791
:103EA0000FB6F894DEBF0FBECDBFE82ED62E142F6E
:103EB0000E94CD0D882309F478C0112349F0AE018A
:103EC0004F5F5F4F6D2D8E2D0E94EF16F82E01C0B3
:103ED000F12C0F2D10E08091A9029801280F311DBF
:103EE000293031056CF188E090E05C01A01AB10A3C
:103EF000B80166557D4FA5018AEA92E00E94C12F64
:103F0000B8016E547D4FA50182EB92E00E94C12F53
:103F1000A501440F551FB801660F771F6E537D4FE3
:103F200082EC92E00E94C12FB80166547D4FA5013A
:103F30008AEB92E00E94C12F88E08F198093A9023A
:103F40001091A902DE01119640E0842F810FF41632
:103F500009F190E05D91252F30E0BC0167557D4F60
:103F6000F901EE0FFF1FE45EFE4F0081FB010183AC
:103F7000220F331FF901EC5FFE4F218DFB012187DA
:103F8000518B880F991FFC01E755FD4F128E118E42
:103F90004F5FDBCF8093A902809130038C7F803705
:103FA00021F46D2D8E2D0E942B1628960FB6F894B5
:103FB000DEBF0FBECDBFDF91CF911F910F91FF905C
:103FC000EF90DF90BF90AF90089508950C94E51F97
:103FD0000E94E61F0C94E51F08950C94EC1FCF93EC
:103FE000DF93FC01C081CC0FCC0FCC0FC850D8E0C0
:103FF000DC0FD63208F0D5E26D2F8C2F0E94ED1F1A
:104000006D2F8C2FDF91CF910C94EC1F4F925F920C
:104010006F927F928F929F92AF92BF92CF92DF92D8
:10402000EF92FF92CF936091D2027091D302809170
:10403000D4029091D5020E94D6276B017C010E9488
:10404000BB274B015C016093D2027093D302809333
:10405000D4029093D502A091A902E9EAF2E08A2F56
:1040600090E04FEF5FEF60E070E04C195D096E0982
:104070007F09A91799F0218D328D2901612C712CAE
:10408000441555056605770510F4815004C02C0DC4
:104090003D1D328F218F9F5F3296EBCF8093A90217
:1040A00080913003982F937021F0C82FC695C69544
:1040B00001C0C0E090918D019130E1F030F092307C
:1040C000D9F1933009F443C06BC110928E018092F4
:1040D000360390923703A0923803B092390389E2F5
:1040E000E9EAF2E0AAE3B3E001900D928A95E1F7E4
:1040F00081E02AC090919101C9130CC0837090E0B7
:104100004091920150E021E08417950709F420E0E6
:10411000822F01C081E081708093900180913503EE
:1041200090918F01981769F180938F0140E060E0D2
:1041300080E00E949A1D25C0C093910183708093F6
:1041400092010E940D1783E080938D0129C1809117
:10415000D60281110E94D2161092D60260913603C7
:104160007091370380913803909139030E94D627CC
:10417000603171058105910508F412C110928D011D
:104180000FC18C2F90E08A32910580F180918E01D1
:104190008F5F80938E0182E080938D0180919001EA
:1041A000811120C0CC2379F20E94E81F8EE891E0B3
:1041B000CF91FF90EF90DF90CF90BF90AF909F9006
:1041C0008F907F906F905F904F900C94EF1F8EE8D0
:1041D00091E00E94A21A90918E019F5F90938E01B0
:1041E0008823C9F2CC2309F4DBC0DECFFC01E059FF
:1041F000FF4F0C94302F80919001882309F4CEC09A
:1042000040E060E080E00E949A1DC8C08EE891E026
:104210000E94E01AE0CF8EE891E00E94351BDBCFD0
:104220008EE891E00E94861BD6CF8EE891E00E9436
:10423000DE1BD1CF8EE891E00E946918CCCF8EE8CA
:1042400091E00E946D18C7CF8EE891E00E94071898
:10425000C2CF8EE891E00E940B18BDCF8EE891E0AE
:104260000E949717B8CF8EE891E00E949B17B3CFBA
:104270008EE891E00E947118AECF8EE891E00E9426
:104280007518A9CF8EE891E00E947918A4CF8EE826
:1042900091E00E947D189FCF8EE891E00E949F17C9
:1042A0009ACF8EE891E00E940F1895CF8EE891E0AA
:1042B0000E94131890CF8EE891E00E94A3178BCF35
:1042C0008EE891E00E94EE1886CF8EE891E00E9481
:1042D000F21881CF8EE891E00E94F6187CCF8EE82C
:1042E00091E00E947A1C77CF8EE891E00E94F21C48
:1042F00072CF8EE891E00E94431D6DCF8EE891E071
:104300000E94811868CF8EE891E00E94851863CFE3
:104310008EE891E00E949F1D5ECF8EE891E00E94A2
:104320007E1E59CF8EE891E00E94731954CF8EE81B
:1043300091E00E9477194FCF8EE891E00E94481AD1
:104340004ACF8EE891E00E94541A45CF8EE891E062
:104350000E945A1A40CF8EE891E00E94661A3BCF25
:104360008EE891E00E946C1A36CF8EE891E00E94B0
:10437000781A31CF8EE891E00E947E1A2CCF8EE819
:1043800091E00E948A1A27CF8EE891E00E94901A4D
:1043900022CF8EE891E00E949C1A1DCF80E01BCFB7
:1043A000CF91FF90EF90DF90CF90BF90AF909F9014
:1043B0008F907F906F905F904F900895E0911502DD
:1043C000F0911602099510923A03E3E5F3E08FEFBE
:1043D0009FEF8193919323E0E336F207D1F7109298
:1043E000A902E2ECF2E08FEF9FEF8193919322E03C
:1043F000E23DF207D1F70E94040D811104C00E9432
:10440000AC0D0E94DA160E94CA16809130038C7F90
:1044100011F40C94DA1608950895E0E3F3E0208196
:1044200091E09227908310928D019091D602892B72
:104430008093D602089581E00C940D229091300370
:104440009370A1F0811102C0946007C08A3210F00D
:10445000946A03C0880F880F982B909330031092B2
:104460008D018091D602682B6093D602089561E099
:104470000C941E22682F90913003969596959F5F1D
:104480009A3210F4892F01C081E00C941E2281E041
:104490000C943A22682F90913003969596959150FE
:1044A00011F0892F01C089E20C941E2281E00C9446
:1044B0004A2290913003937071F08093310360939E
:1044C0003203473908F046E9409333038091D6021E
:1044D000282B2093D6020895A0E3B3E01196EC9127
:1044E0001197F0E0282F13964C91139712966C9128
:1044F000CF0108960C94592281E00C946C22A0E321
:10450000B3E01196EC911197F0E0282F13964C919F
:10451000139712966C91CF0108970C94592281E061
:104520000C947F22E0E3F3E0628128E0620F08F45C
:104530006FEF9181282F4381892F90E00C945922AD
:1045400081E00C949222E0E3F3E0628128E0621BB8
:1045500008F460E09181282F4381892F90E00C942A
:10456000592281E00C94A322E0E3F3E0438128E0A8
:10457000420F08F44FEF9181282F6281892F90E03C
:104580000C94592281E00C94B422E0E3F3E04381DF
:1045900028E0421B08F440E09181282F6281892F96
:1045A00090E00C94592281E00C94C522809334034E
:1045B0008091D602682B6093D6020895209134032F
:1045C0003AE0230F08F42FEF682F822F0C94D622A5
:1045D00081E00C94DE22209134033AE0231B08F49E
:1045E00020E0682F822F0C94D62281E00C94EB22DD
:1045F0000895FC01EE0FFF1F8E0F9F1FFC01ED5968
:10460000FC4F6183408322830895E3E6F3E093E067
:10461000E23DF90729F08183608342833396F7CF27
:10462000089565E270E083E693E00C94B923882353
:1046300011F0FA0101C0FB0109941F93CF93DF939E
:10464000FB011281112309F48CC0EC010E944C0C77
:104650008272CB3CFCE5DF0709F46EC048F5C63C2E
:10466000ECE5DE0709F454C070F4C43C9CE5D907BE
:1046700009F442C008F045C0C33CDC4509F074C0F1
:104680000E941B2270C0C83C9CE5D90709F44AC0AF
:1046900008F443C0C93CFCE5DF0709F448C0CA3C44
:1046A000DC4509F061C043ED52E262EC72E22DC0DC
:1046B000C03DECE5DE0709F450C088F4CD3C9CE534
:1046C000D90709F443C0E8F1CE3CFCE5DF0709F463
:1046D00042C0CF3CDC4509F047C085E03FC0C73D44
:1046E0009CE5D90728F4C23DDC45E8F582E136C0F7
:1046F000CE35DD45C1F138C046E552E267E472E2ED
:1047000004C047E452E266E572E20E9417232BC020
:104710004FE852E26CE772E2F8CF4CE752E26FE802
:1047200072E2F3CF41EB52E260EA72E2EECF40EA8E
:1047300052E261EB72E2E9CF42EC52E263ED72E2E7
:10474000E4CF45EF52E268EE72E2DFCF48EE52E28C
:1047500065EF72E2DACF81E001C08DE00E9437227E
:1047600002C011E001C010E0812FDF91CF911F91B5
:104770000895869A21B32F7B31B330644FB7F894F4
:10478000FC01CB01880F991F680F791F6E0F7F1FE7
:10479000E617F70789F0819198E031BB000000C06F
:1047A00087FF21BB880F000000C000C000C021BBF4
:1047B00000C09A9591F7ECCF4FBF8FE594E0019739
:1047C000F1F700C0000008950F931F93CF93DF937C
:1047D000C42FD22FFC0182818823C9F04093F402B8
:1047E0000E94AF279093F3028093F20280E28C0F35
:1047F000883008F057C0C77081E001C0880FCA95A3
:10480000EAF7DF91CF911F910F910C947204809180
:10481000F402481330C08091F2029091F3020E949A
:10482000C727883C910538F510E21D0FCD17B9F068
:1048300080E28C0F883040F4C77081E001C0880F9F
:10484000CA95EAF70E947904183028F581E09D2F77
:10485000977001C0880F9A95EAF70E947204802F22
:104860000E9469041830F0F4D77081E001C0880F0D
:10487000DA95EAF70AC080E28C0F883098F4C770A6
:1048800081E001C0880FCA95EAF7DF91CF911F91AF
:104890000F910C947904802FDF91CF911F910F918C
:1048A0000C946904DF91CF911F910F9108950F939C
:1048B0009C01CB01243F4CE5340731F188F4293DBC
:1048C000FCE53F07D9F02A3D4CE5340779F1283D56
:1048D0003C45A9F506E221EE41EE68ED7CE52BC0F2
:1048E000263FFCE53F07E1F0A8F0273F3C4539F5BE
:1048F00007E225EE46EE67EF7CE51DC007E225EEF8
:1049000045EE69ED7CE517C006E221EE40EE64EF6E
:104910007CE511C007E225EE44EE65EF7CE50BC0B7
:1049200006E221EE42EE66EF7CE505C008E221E0FA
:1049300045EE6AED7CE50E94E42380E008C0FC01BE
:104940008281882319F01092F40201C081E00F9156
:104950000895CF93DF93EC01FB018281882309F452
:1049600026C1C430FDE5DF0760F4CB3F9CE5D907E5
:1049700068F49E0122503C452431310508F018C1ED
:1049800005C0C236EDE5DE0709F012C10E94170D21
:104990009093230380932203C031FCE5DF0709F4E1
:1049A000CAC008F041C0C8309CE5D90709F4A4C0CA
:1049B000F0F4C430FCE5DF0709F48CC068F4C230C1
:1049C0009CE5D90709F482C0C330DC4509F0E5C095
:1049D000809122038260DFC0C630FCE5DF0709F466
:1049E00083C008F085C0809122038860D4C0CC3099
:1049F0009CE5D90709F490C068F4CA30FCE5DF07EC
:104A000009F47EC008F084C00E94E706809122036A
:104A10008068C1C0CE309CE5D90709F481C008F098
:104A200086C08091220394C0CD3FFCE5DF0709F4E6
:104A30007BC038F5C4319CE5D90709F49AC058F415
:104A4000C231FCE5DF0709F47AC008F07EC080912E
:104A500022038F7BA0C0CB3F9CE5D907F1F108F082
:104A60003FC0C531DC4509F098C08091220382FB2C
:104A7000222720F991E0922790FB82F990FB83F99D
:104A80008AC0C1308DE5D80709F467C050F4809121
:104A90002303CF3FECE5DE07C1F108F05BC08D7F5B
:104AA00065C0C3308DE5D80709F471C008F46DC046
:104AB000C236DD4509F071C08091220384FB2227B4
:104AC00020F991E0922790FB84F965C08091220340
:104AD000816061C08091220316C08091230316C0BB
:104AE00080912303826042C080912203806153C081
:104AF0008091220380624FC08091220380644BC06A
:104B0000809122038860846046C0826081602EC0EC
:104B1000809122038E7F3FC0809122038D7F3BC016
:104B200080912203877F37C08091230314C0809136
:104B300022038F7E30C0809122038F7D2CC00E9483
:104B4000E706809122038F7726C080912203877F1A
:104B50008B7F21C08D7F8E7F09C080912303982F8A
:104B6000909591708E7F892B90FB81F98093230320
:104B700014C00E94E7068091220387FB222720F9B8
:104B800091E0922790FB87F906C081E001C080E0A8
:104B90000E94AE0D02C08093220380912203909167
:104BA00023030E94280D0E94E70680E001C081E0F7
:104BB000DF91CF910895CF93DF9386319C4541F5E6
:104BC000EB010E944C0C982F8A8120918B0130912F
:104BD0008C01882379F09A7A81E009F480E080934F
:104BE000F502911102C069E201C065E3C9010E94AA
:104BF000F9260AC08091F502811102C069E201C064
:104C000065E3C9010E9404270E94910C80E001C065
:104C100081E0DF91CF9108959093FB028093FA0297
:104C20000895E091FA02F091FB02309721F0019093
:104C3000F081E02D099480E00895E091FA02F0916E
:104C4000FB02309799F020919D01222359F0209189
:104C5000220327FF07C0DC012C9111962C9311979A
:104C600025E02C930280F381E02D09940895209192
:104C7000F8023091F9022817390771F09093F90280
:104C80008093F802E091FA02F091FB02309721F054
:104C90000680F781E02D099408952091F602309165
:104CA000F7022817390771F09093F7028093F60204
:104CB000E091FA02F091FB02309721F00084F18537
:104CC000E02D09940895FC01329680919D0188237E
:104CD00031F08091220387FF02C09EE101C096E07F
:104CE00080E0915028F021912223D9F38F5FF9CFF2
:104CF0000895662351F120919D012223E9F020912E
:104D0000220327FF19C0462F4695469546954E31FA
:104D1000E0F4677021E030E002C0220F331F6A9593
:104D2000E2F7FC01E40FF11D828190E02823392392
:104D300081E0232B69F409C0FC0132960896219189
:104D4000621729F0E817F907D1F780E0089581E0AC
:104D500008959C01FC0132969FEF80E04191461737
:104D600089F09F3F19F4411101C0982F8F5F863061
:104D7000A9F79F3F39F0F901E90FF11D97FDFA9569
:104D80006283089508959C012A5F3F4FFC01428190
:104D9000461301C01282019682179307B9F708954E
:104DA000262F2695269526952E3168F4FC01E20FD4
:104DB000F11D677021E030E001C0220F6A95EAF72B
:104DC0008281282B22830895262F269526952695C5
:104DD0002E3170F4FC01E20FF11D677021E030E02C
:104DE00001C0220F6A95EAF7209582812823228349
:104DF000089520919D01222329F02091220327FD6F
:104E00000C94D0260C94A92620919D01222329F0F0
:104E10002091220327FD0C94E4260C94C3262091B4
:104E20009D01FC013296222331F08091220387FFFD
:104E300002C08EE101C086E0DF011D928A95E9F78C
:104E40000895089508950C9422270C942227CF9357
:104E50000E9425270E9493110E942327C0E08C2FD7
:104E60000E94C910811104C0CF5FC630C1F701C0D4
:104E700081E0CF9108950C9422270C943B278091D8
:104E8000DA03843061F10E943D2780E00E94F8023D
:104E900081E00E940C221092FC0220E488E190E064
:104EA0000FB6F894A895809360000FBE2093600021
:104EB00083B7817F846083BF83B7816083BF789429
:104EC000889583B78E7F83BF0FB6F894A89580919D
:104ED0006000886180936000109260000FBE0895AA
:104EE0000C9422270E94E7060E9411260E94F802D5
:104EF00080E00E940C220C9470271F920F920FB634
:104F00000F9211248F939F93AF93BF938091FC02D4
:104F1000811113C08091D2039091D303A091D40347
:104F2000B091D5034196A11DB11D8093D2039093FA
:104F3000D303A093D403B093D503BF91AF919F91B6
:104F40008F910F900FBE0F901F90189582E084BD37
:104F500093E095BD9AEF97BD80936E0008952FB7AB
:104F6000F8948091D2039091D303A091D403B0918F
:104F7000D5032FBF08952FB7F8946091D203709195
:104F8000D3038091D4039091D5032FBF08959C0142
:104F90004FB7F8948091D2039091D303A091D4039A
:104FA000B091D5034FBF821B930B0895CF92DF9230
:104FB000EF92FF922FB7F894C090D203D090D30312
:104FC000E090D403F090D5032FBFA7019601261BD4
:104FD000370B480B590BCA01B901FF90EF90DF90D6
:104FE000CF90089578941F920F920FB60F921124CC
:104FF0008F939F93AF93BF938091D2039091D303EC
:10500000A091D403B091D5030196A11DB11D809349
:10501000D2039093D303A093D403B093D503BF914D
:10502000AF919F918F910F900FBE0F901F90189589
:1050300081E08093E00080E28093D8001092C90064
:105040008FE19EE40197F1F700C0000087E090EB4C
:10505000DC018093E3039093E403A093E503B09312
:10506000E6039CE088E10FB6F894A8958093600071
:105070000FBE90936000FFCF90931F0280931E029B
:1050800008958091200308959091DA03943031F5CA
:105090008093FD027093FF026093FE0282E0809392
:1050A000E9008FEF9091E800815095FD06C095EDE5
:1050B0009A95F1F700008111F5CF8091E80085FF06
:1050C0000DC040E050E063E070E08DEF92E00E94A0
:1050D0004B2A8091E8008E778093E8000895BC0108
:1050E00084E00C944428BC0183E00C944428CF93C2
:1050F000DF9320919D01222339F02091220327FF85
:1051000003C060E222E002C068E021E02093E900F1
:105110002FEF3091E800215035FD06C035ED3A956E
:10512000F1F700002111F5CF2091E80025FF1DC007
:10513000EC0180919D01811105C040E050E068E0E4
:1051400070E003C070E040E050E0CE010E944B2AC6
:105150008091E8008E778093E80080E2FE01A0E075
:10516000B3E001900D928A95E1F7DF91CF91089518
:1051700008958091D903811109C00E94DC2B0E94FF
:10518000392C8091E20084608093E20008951092AF
:10519000D903089508950895089542E061EC81E0EF
:1051A0000E94552B42E261EC82E00C94552B8091D9
:1051B000DC03833009F460C030F4813071F0823058
:1051C00009F499C008958A3009F485C08B3009F438
:1051D0006BC0893009F0A7C020C08091DB03813A01
:1051E00009F0A1C08091E800877F8093E80080915A
:1051F000DF039091E003892B21F460E280E093E0EB
:1052000003C060E080E090E070E00E94962A809108
:10521000E8008B778093E80008958091DB0381326A
:1052200009F081C08091DF039091E003029708F0BC
:105230007AC08091E800877F8093E8008091E80041
:1052400082FD05C08091DA038111F8CF6CC02091F6
:10525000F3008091F20090E0922B029729F4809164
:10526000F1008B7F813021F48091F1008093200345
:105270008091E8008B7753C08091DB03813A09F07D
:1052800052C08091DF039091E003892B09F04BC05D
:105290008091E800877F8093E8008091E80080FF9C
:1052A000FCCF80919D0136C08091DB038132D9F51E
:1052B0008091DF039091E003892BA9F58091E800AC
:1052C000877F8093E8000E948A2B8091DD03809382
:1052D0009D010C94E7068091DB03813221F58091DA
:1052E000E800877F8093E8000E948A2B8091DE038C
:1052F0008093210308958091DB03813AA1F480918A
:10530000E800877F8093E8008091E80080FFFCCF71
:10531000809121038093F1008091E8008E77809343
:10532000E8000C948A2B089584B7877F84BF0FB65A
:10533000F894A89580916000886180936000109235
:1053400060000FBE90E080E80FB6F8948093610093
:10535000909361000FBE0C94DE0D0E94DC2B0E9426
:10536000392CE2EEF0E080818460808378940E94A2
:10537000CE2E0E94EC0D83E991E00C940C268091D6
:10538000DA038530A9F48091DA03853079F40E943C
:105390003F278091D8038823B1F30E9427278823D1
:1053A00091F30E94352A0E94E706EDCF0E947227F2
:1053B0000C94F20D0C94DC29292F3327233031056E
:1053C000C9F060F42130310581F02230310509F057
:1053D00044C08BE390E02AEC32E043C02132310537
:1053E000E1F02232310549F138C082E190E025E058
:1053F00033E037C099278130910549F028F00297B2
:1054000061F5E8EAF2E005C0E6ECF2E002C0E2EBAA
:10541000F2E0849190E09F0124C06115710541F094
:1054200061307105D1F489E090E025EF32E019C0D8
:1054300089E090E02CED32E014C06115710541F077
:105440006130710551F48DE690E027E133E009C049
:1054500080E490E024E833E004C080E090E020E0C5
:1054600030E0FA0131832083089580E189BD82E133
:1054700089BD09B400FEFDCF8091D8008F7D809357
:10548000D8008091E00082608093E0008091E0008D
:1054900081FDFCCF0895CF92DF92EF92FF920F93A0
:1054A0001F93CF93DF93EC018B017A010E94A92B0C
:1054B000811133C0E114F10439F0F7018081918149
:1054C000081B190BC80FD91FC12CD12C01151105B0
:1054D00019F18091E80085FD16C08091E8008E7773
:1054E0008093E800E114F10449F0F7018081918193
:1054F000C80ED91ED182C08285E00FC00E94A92BA0
:10550000882321F30AC089918093F1000150110989
:10551000FFEFCF1ADF0ADACF80E0DF91CF911F9142
:105520000F91FF90EF90DF90CF9008952091E103CD
:105530003091E2032617370748F06115710539F4F9
:105540002091E8002E772093E80001C0B901FC010A
:1055500020E06115710579F18091DA038823F1F17A
:105560008530F1F18091E80083FD3CC08091E80036
:1055700082FD2EC08091E80080FFEBCF2091F300E8
:105580008091F20090E0922B6115710551F0883006
:10559000910538F421912093F10061507109019631
:1055A000F3CF21E0089709F020E08091E8008E77A2
:1055B0008093E800CECF2111CFCF0AC08091DA03CB
:1055C000882361F0853061F08091E80083FD0AC096
:1055D0008091E80082FFF2CF80E0089582E0089594
:1055E00083E0089581E008952091E1033091E20382
:1055F0002617370748F06115710539F42091E80046
:105600002E772093E80001C0B901FC0120E061156C
:10561000710591F18091DA03882309F440C0853047
:1056200009F43FC08091E80083FD3DC08091E8000F
:1056300082FD2FC08091E80080FFE9CF2091F30028
:105640008091F20090E0922B6115710559F088303D
:10565000910540F424912093F10031966150710935
:105660000196F2CF21E0089709F020E08091E80050
:105670008E778093E800CBCF2111CCCF0AC08091E8
:10568000DA03882361F0853061F08091E80083FDC2
:105690000AC08091E80082FFF2CF80E0089582E0A6
:1056A000089583E0089581E00895982F973068F574
:1056B0009093E900981739F07091EC002091ED007B
:1056C0005091F00003C0242F762F50E021FD02C03E
:1056D0009F5FECCF3091EB003E7F3093EB00309139
:1056E000ED003D7F3093ED003091EB003160309361
:1056F000EB007093EC002093ED005093F0002091AC
:10570000EE0027FDE5CF80E008958F708093E900DB
:1057100081E008958091DB0387FF11C08091E8004C
:1057200082FD05C08091DA038111F8CF11C080910C
:10573000E8008B770BC08091DA03882349F08091D1
:10574000E80080FFF8CF8091E8008E778093E80032
:1057500008952091E4003091E50095E64091EC0039
:10576000842F817040FF23C08091E80080FD1DC020
:105770008091DA03882399F0853099F08091EB00CD
:1057800085FD11C04091E4005091E50024173507D4
:1057900029F3915011F09A01E1CF84E0089582E05D
:1057A000089583E0089581E0089580E00895409190
:1057B000E80042FFDDCF08950E944A2C0E94522C3F
:1057C000E0EEF0E0808181608083E8EDF0E08081B0
:1057D0008F77808319BCA7EDB0E08C918E7F8C937E
:1057E00080818F7E80831092D90308950F931F9339
:1057F000CF93DF930E944A2C0E94522CC8EDD0E038
:1058000088818F77888388818068888388818F7D6D
:10581000888319BC1092DA031092D6031092D80331
:105820001092D70300EE10E0F80180818B7F808317
:1058300088818160888342E060E080E00E94552B8F
:10584000E1EEF0E080818E7F8083E2EEF0E0808107
:1058500081608083808188608083F80180818E7F71
:105860008083888180618883DF91CF911F910F9120
:105870000895E8EDF0E080818F7E8083E7EDF0E031
:1058800080818160808384E082BF81E08093D9033E
:105890000C94F62BE8EDF0E080818E7F80831092EF
:1058A000E20008951092DA001092E10008951F922C
:1058B0000F920FB60F9211242F933F934F935F9344
:1058C0006F937F938F939F93AF93BF93EF93FF93C8
:1058D0008091E10082FF0BC08091E20082FF07C04F
:1058E0008091E1008B7F8093E1000E94CD2E80911A
:1058F000DA0080FF1FC08091D80080FF1BC080911C
:10590000DA008E7F8093DA008091D90080FF0DC08D
:1059100080E189BD82E189BD09B400FEFDCF81E04F
:105920008093DA030E94B92805C019BC1092DA03EB
:105930000E94C7288091E10080FF19C08091E20099
:1059400080FF15C08091E2008E7F8093E2008091FD
:10595000E20080618093E2008091D80080628093B1
:10596000D80019BC85E08093DA030E94CB2880918F
:10597000E10084FF30C08091E20084FF2CC080E110
:1059800089BD82E189BD09B400FEFDCF8091D800B8
:105990008F7D8093D8008091E1008F7E8093E1001D
:1059A0008091E2008F7E8093E2008091E20081602E
:1059B0008093E2008091D603882311F084E007C031
:1059C0008091E30087FD02C081E001C083E0809305
:1059D000DA030E94CC288091E10083FF29C08091E6
:1059E000E20083FF25C08091E100877F8093E10082
:1059F00082E08093DA031092D6038091E1008E7FDB
:105A00008093E1008091E2008E7F8093E20080919C
:105A1000E20080618093E20042E060E080E00E946A
:105A2000552B8091F00088608093F0000E94CA2876
:105A3000FF91EF91BF91AF919F918F917F916F9166
:105A40005F914F913F912F910F900FBE0F901F903C
:105A500018951F920F920FB60F9211242F933F9318
:105A60004F935F936F937F938F939F93AF93BF9366
:105A7000CF93DF93EF93FF93C091E900CF708091B4
:105A8000EC00D82FD17080FDD0E81092E900809111
:105A9000F000877F8093F00078940E946D2D109223
:105AA000E9008091F00088608093F000CD2BCF70EA
:105AB000C093E900FF91EF91DF91CF91BF91AF913A
:105AC0009F918F917F916F915F914F913F912F9116
:105AD0000F900FBE0F901F9018951F93CF93DF93D9
